{
  "contractName": "Emiswap",
  "abi": [
    {
      "inputs": [],
      "stateMutability": "nonpayable",
      "type": "constructor"
    },
    {
      "anonymous": false,
      "inputs": [
        {
          "indexed": true,
          "internalType": "address",
          "name": "owner",
          "type": "address"
        },
        {
          "indexed": true,
          "internalType": "address",
          "name": "spender",
          "type": "address"
        },
        {
          "indexed": false,
          "internalType": "uint256",
          "name": "value",
          "type": "uint256"
        }
      ],
      "name": "Approval",
      "type": "event"
    },
    {
      "anonymous": false,
      "inputs": [
        {
          "indexed": true,
          "internalType": "address",
          "name": "account",
          "type": "address"
        },
        {
          "indexed": false,
          "internalType": "uint256",
          "name": "amount",
          "type": "uint256"
        },
        {
          "indexed": false,
          "internalType": "address",
          "name": "referral",
          "type": "address"
        }
      ],
      "name": "Deposited",
      "type": "event"
    },
    {
      "anonymous": false,
      "inputs": [
        {
          "indexed": true,
          "internalType": "address",
          "name": "previousOwner",
          "type": "address"
        },
        {
          "indexed": true,
          "internalType": "address",
          "name": "newOwner",
          "type": "address"
        }
      ],
      "name": "OwnershipTransferred",
      "type": "event"
    },
    {
      "anonymous": false,
      "inputs": [
        {
          "indexed": true,
          "internalType": "address",
          "name": "account",
          "type": "address"
        },
        {
          "indexed": true,
          "internalType": "address",
          "name": "src",
          "type": "address"
        },
        {
          "indexed": true,
          "internalType": "address",
          "name": "dst",
          "type": "address"
        },
        {
          "indexed": false,
          "internalType": "uint256",
          "name": "amount",
          "type": "uint256"
        },
        {
          "indexed": false,
          "internalType": "uint256",
          "name": "result",
          "type": "uint256"
        },
        {
          "indexed": false,
          "internalType": "uint256",
          "name": "srcBalance",
          "type": "uint256"
        },
        {
          "indexed": false,
          "internalType": "uint256",
          "name": "dstBalance",
          "type": "uint256"
        },
        {
          "indexed": false,
          "internalType": "uint256",
          "name": "totalSupply",
          "type": "uint256"
        },
        {
          "indexed": false,
          "internalType": "address",
          "name": "referral",
          "type": "address"
        }
      ],
      "name": "Swapped",
      "type": "event"
    },
    {
      "anonymous": false,
      "inputs": [
        {
          "indexed": true,
          "internalType": "address",
          "name": "account",
          "type": "address"
        },
        {
          "indexed": true,
          "internalType": "address",
          "name": "to",
          "type": "address"
        },
        {
          "indexed": false,
          "internalType": "uint256",
          "name": "resultVault",
          "type": "uint256"
        }
      ],
      "name": "Swapped2",
      "type": "event"
    },
    {
      "anonymous": false,
      "inputs": [
        {
          "indexed": true,
          "internalType": "address",
          "name": "from",
          "type": "address"
        },
        {
          "indexed": true,
          "internalType": "address",
          "name": "to",
          "type": "address"
        },
        {
          "indexed": false,
          "internalType": "uint256",
          "name": "value",
          "type": "uint256"
        }
      ],
      "name": "Transfer",
      "type": "event"
    },
    {
      "anonymous": false,
      "inputs": [
        {
          "indexed": true,
          "internalType": "address",
          "name": "account",
          "type": "address"
        },
        {
          "indexed": false,
          "internalType": "uint256",
          "name": "amount",
          "type": "uint256"
        }
      ],
      "name": "Withdrawn",
      "type": "event"
    },
    {
      "inputs": [],
      "name": "BASE_SUPPLY",
      "outputs": [
        {
          "internalType": "uint256",
          "name": "",
          "type": "uint256"
        }
      ],
      "stateMutability": "view",
      "type": "function",
      "constant": true
    },
    {
      "inputs": [],
      "name": "FEE_DENOMINATOR",
      "outputs": [
        {
          "internalType": "uint256",
          "name": "",
          "type": "uint256"
        }
      ],
      "stateMutability": "view",
      "type": "function",
      "constant": true
    },
    {
      "inputs": [],
      "name": "REFERRAL_SHARE",
      "outputs": [
        {
          "internalType": "uint256",
          "name": "",
          "type": "uint256"
        }
      ],
      "stateMutability": "view",
      "type": "function",
      "constant": true
    },
    {
      "inputs": [
        {
          "internalType": "address",
          "name": "owner",
          "type": "address"
        },
        {
          "internalType": "address",
          "name": "spender",
          "type": "address"
        }
      ],
      "name": "allowance",
      "outputs": [
        {
          "internalType": "uint256",
          "name": "",
          "type": "uint256"
        }
      ],
      "stateMutability": "view",
      "type": "function",
      "constant": true
    },
    {
      "inputs": [
        {
          "internalType": "address",
          "name": "spender",
          "type": "address"
        },
        {
          "internalType": "uint256",
          "name": "amount",
          "type": "uint256"
        }
      ],
      "name": "approve",
      "outputs": [
        {
          "internalType": "bool",
          "name": "",
          "type": "bool"
        }
      ],
      "stateMutability": "nonpayable",
      "type": "function"
    },
    {
      "inputs": [
        {
          "internalType": "address",
          "name": "account",
          "type": "address"
        }
      ],
      "name": "balanceOf",
      "outputs": [
        {
          "internalType": "uint256",
          "name": "",
          "type": "uint256"
        }
      ],
      "stateMutability": "view",
      "type": "function",
      "constant": true
    },
    {
      "inputs": [],
      "name": "decimals",
      "outputs": [
        {
          "internalType": "uint8",
          "name": "",
          "type": "uint8"
        }
      ],
      "stateMutability": "view",
      "type": "function",
      "constant": true
    },
    {
      "inputs": [
        {
          "internalType": "address",
          "name": "spender",
          "type": "address"
        },
        {
          "internalType": "uint256",
          "name": "subtractedValue",
          "type": "uint256"
        }
      ],
      "name": "decreaseAllowance",
      "outputs": [
        {
          "internalType": "bool",
          "name": "",
          "type": "bool"
        }
      ],
      "stateMutability": "nonpayable",
      "type": "function"
    },
    {
      "inputs": [],
      "name": "factory",
      "outputs": [
        {
          "internalType": "contract IFactory",
          "name": "",
          "type": "address"
        }
      ],
      "stateMutability": "view",
      "type": "function",
      "constant": true
    },
    {
      "inputs": [
        {
          "internalType": "address",
          "name": "spender",
          "type": "address"
        },
        {
          "internalType": "uint256",
          "name": "addedValue",
          "type": "uint256"
        }
      ],
      "name": "increaseAllowance",
      "outputs": [
        {
          "internalType": "bool",
          "name": "",
          "type": "bool"
        }
      ],
      "stateMutability": "nonpayable",
      "type": "function"
    },
    {
      "inputs": [
        {
          "internalType": "contract IERC20",
          "name": "",
          "type": "address"
        }
      ],
      "name": "isToken",
      "outputs": [
        {
          "internalType": "bool",
          "name": "",
          "type": "bool"
        }
      ],
      "stateMutability": "view",
      "type": "function",
      "constant": true
    },
    {
      "inputs": [],
      "name": "name",
      "outputs": [
        {
          "internalType": "string",
          "name": "",
          "type": "string"
        }
      ],
      "stateMutability": "view",
      "type": "function",
      "constant": true
    },
    {
      "inputs": [],
      "name": "owner",
      "outputs": [
        {
          "internalType": "address",
          "name": "",
          "type": "address"
        }
      ],
      "stateMutability": "view",
      "type": "function",
      "constant": true
    },
    {
      "inputs": [],
      "name": "renounceOwnership",
      "outputs": [],
      "stateMutability": "nonpayable",
      "type": "function"
    },
    {
      "inputs": [],
      "name": "symbol",
      "outputs": [
        {
          "internalType": "string",
          "name": "",
          "type": "string"
        }
      ],
      "stateMutability": "view",
      "type": "function",
      "constant": true
    },
    {
      "inputs": [
        {
          "internalType": "uint256",
          "name": "",
          "type": "uint256"
        }
      ],
      "name": "tokens",
      "outputs": [
        {
          "internalType": "contract IERC20",
          "name": "",
          "type": "address"
        }
      ],
      "stateMutability": "view",
      "type": "function",
      "constant": true
    },
    {
      "inputs": [],
      "name": "totalSupply",
      "outputs": [
        {
          "internalType": "uint256",
          "name": "",
          "type": "uint256"
        }
      ],
      "stateMutability": "view",
      "type": "function",
      "constant": true
    },
    {
      "inputs": [
        {
          "internalType": "address",
          "name": "recipient",
          "type": "address"
        },
        {
          "internalType": "uint256",
          "name": "amount",
          "type": "uint256"
        }
      ],
      "name": "transfer",
      "outputs": [
        {
          "internalType": "bool",
          "name": "",
          "type": "bool"
        }
      ],
      "stateMutability": "nonpayable",
      "type": "function"
    },
    {
      "inputs": [
        {
          "internalType": "address",
          "name": "sender",
          "type": "address"
        },
        {
          "internalType": "address",
          "name": "recipient",
          "type": "address"
        },
        {
          "internalType": "uint256",
          "name": "amount",
          "type": "uint256"
        }
      ],
      "name": "transferFrom",
      "outputs": [
        {
          "internalType": "bool",
          "name": "",
          "type": "bool"
        }
      ],
      "stateMutability": "nonpayable",
      "type": "function"
    },
    {
      "inputs": [
        {
          "internalType": "address",
          "name": "newOwner",
          "type": "address"
        }
      ],
      "name": "transferOwnership",
      "outputs": [],
      "stateMutability": "nonpayable",
      "type": "function"
    },
    {
      "inputs": [
        {
          "internalType": "contract IERC20",
          "name": "",
          "type": "address"
        }
      ],
      "name": "virtualBalancesForAddition",
      "outputs": [
        {
          "internalType": "uint216",
          "name": "balance",
          "type": "uint216"
        },
        {
          "internalType": "uint40",
          "name": "time",
          "type": "uint40"
        }
      ],
      "stateMutability": "view",
      "type": "function",
      "constant": true
    },
    {
      "inputs": [
        {
          "internalType": "contract IERC20",
          "name": "",
          "type": "address"
        }
      ],
      "name": "virtualBalancesForRemoval",
      "outputs": [
        {
          "internalType": "uint216",
          "name": "balance",
          "type": "uint216"
        },
        {
          "internalType": "uint40",
          "name": "time",
          "type": "uint40"
        }
      ],
      "stateMutability": "view",
      "type": "function",
      "constant": true
    },
    {
      "inputs": [
        {
          "internalType": "contract IERC20",
          "name": "",
          "type": "address"
        }
      ],
      "name": "volumes",
      "outputs": [
        {
          "internalType": "uint128",
          "name": "confirmed",
          "type": "uint128"
        },
        {
          "internalType": "uint128",
          "name": "result",
          "type": "uint128"
        }
      ],
      "stateMutability": "view",
      "type": "function",
      "constant": true
    },
    {
      "inputs": [
        {
          "internalType": "contract IERC20[]",
          "name": "assets",
          "type": "address[]"
        }
      ],
      "name": "initialize",
      "outputs": [],
      "stateMutability": "nonpayable",
      "type": "function"
    },
    {
      "inputs": [],
      "name": "fee",
      "outputs": [
        {
          "internalType": "uint256",
          "name": "",
          "type": "uint256"
        }
      ],
      "stateMutability": "view",
      "type": "function",
      "constant": true
    },
    {
      "inputs": [],
      "name": "feeVault",
      "outputs": [
        {
          "internalType": "uint256",
          "name": "",
          "type": "uint256"
        }
      ],
      "stateMutability": "view",
      "type": "function",
      "constant": true
    },
    {
      "inputs": [],
      "name": "addressVault",
      "outputs": [
        {
          "internalType": "address",
          "name": "",
          "type": "address"
        }
      ],
      "stateMutability": "view",
      "type": "function",
      "constant": true
    },
    {
      "inputs": [],
      "name": "getTokens",
      "outputs": [
        {
          "internalType": "contract IERC20[]",
          "name": "",
          "type": "address[]"
        }
      ],
      "stateMutability": "view",
      "type": "function",
      "constant": true
    },
    {
      "inputs": [],
      "name": "decayPeriod",
      "outputs": [
        {
          "internalType": "uint256",
          "name": "",
          "type": "uint256"
        }
      ],
      "stateMutability": "pure",
      "type": "function",
      "constant": true
    },
    {
      "inputs": [
        {
          "internalType": "contract IERC20",
          "name": "token",
          "type": "address"
        }
      ],
      "name": "getBalanceForAddition",
      "outputs": [
        {
          "internalType": "uint256",
          "name": "",
          "type": "uint256"
        }
      ],
      "stateMutability": "view",
      "type": "function",
      "constant": true
    },
    {
      "inputs": [
        {
          "internalType": "contract IERC20",
          "name": "token",
          "type": "address"
        }
      ],
      "name": "getBalanceForRemoval",
      "outputs": [
        {
          "internalType": "uint256",
          "name": "",
          "type": "uint256"
        }
      ],
      "stateMutability": "view",
      "type": "function",
      "constant": true
    },
    {
      "inputs": [
        {
          "internalType": "contract IERC20",
          "name": "src",
          "type": "address"
        },
        {
          "internalType": "contract IERC20",
          "name": "dst",
          "type": "address"
        },
        {
          "internalType": "uint256",
          "name": "amount",
          "type": "uint256"
        }
      ],
      "name": "getReturn",
      "outputs": [
        {
          "internalType": "uint256",
          "name": "",
          "type": "uint256"
        },
        {
          "internalType": "uint256",
          "name": "",
          "type": "uint256"
        }
      ],
      "stateMutability": "view",
      "type": "function",
      "constant": true
    },
    {
      "inputs": [
        {
          "internalType": "uint256[]",
          "name": "amounts",
          "type": "uint256[]"
        },
        {
          "internalType": "uint256[]",
          "name": "minAmounts",
          "type": "uint256[]"
        },
        {
          "internalType": "address",
          "name": "referral",
          "type": "address"
        }
      ],
      "name": "deposit",
      "outputs": [
        {
          "internalType": "uint256",
          "name": "fairSupply",
          "type": "uint256"
        }
      ],
      "stateMutability": "nonpayable",
      "type": "function"
    },
    {
      "inputs": [
        {
          "internalType": "uint256",
          "name": "amount",
          "type": "uint256"
        },
        {
          "internalType": "uint256[]",
          "name": "minReturns",
          "type": "uint256[]"
        }
      ],
      "name": "withdraw",
      "outputs": [],
      "stateMutability": "nonpayable",
      "type": "function"
    },
    {
      "inputs": [
        {
          "internalType": "contract IERC20",
          "name": "src",
          "type": "address"
        },
        {
          "internalType": "contract IERC20",
          "name": "dst",
          "type": "address"
        },
        {
          "internalType": "uint256",
          "name": "amount",
          "type": "uint256"
        },
        {
          "internalType": "uint256",
          "name": "minReturn",
          "type": "uint256"
        },
        {
          "internalType": "address",
          "name": "to",
          "type": "address"
        },
        {
          "internalType": "address",
          "name": "referral",
          "type": "address"
        }
      ],
      "name": "swap",
      "outputs": [
        {
          "internalType": "uint256",
          "name": "result",
          "type": "uint256"
        }
      ],
      "stateMutability": "nonpayable",
      "type": "function"
    },
    {
      "inputs": [
        {
          "internalType": "contract IERC20",
          "name": "token",
          "type": "address"
        },
        {
          "internalType": "uint256",
          "name": "amount",
          "type": "uint256"
        }
      ],
      "name": "rescueFunds",
      "outputs": [],
      "stateMutability": "nonpayable",
      "type": "function"
    }
  ],
  "bytecode": "0x60806040523480156200001157600080fd5b50604080518082018252601081526f22b6b4b9bbb0b8102628103a37b5b2b760811b6020808301918252835180850190945260068452650454d49204c560d41b908401528151919291620000689160039162000109565b5080516200007e90600490602084019062000109565b50506005805460ff1916601217905550600160065560006200009f62000105565b600780546001600160a01b0319166001600160a01b038316908117909155604051919250906000907f8be0079c531659141344cd1fd0a4f28419497f9722a3daafe3b4186f6b6457e0908290a350600880546001600160a01b03191633179055620001a5565b3390565b828054600181600116156101000203166002900490600052602060002090601f016020900481019282601f106200014c57805160ff19168380011785556200017c565b828001600101855582156200017c579182015b828111156200017c5782518255916020019190600101906200015f565b506200018a9291506200018e565b5090565b5b808211156200018a57600081556001016200018f565b613fea80620001b56000396000f3fe608060405234801561001057600080fd5b506004361061025c5760003560e01c80637dc2038211610145578063b21b5a21116100bd578063d7d3aab51161008c578063ddca3f4311610071578063ddca3f4314610a3d578063e7ff42c914610a45578063f2fde38b14610a785761025c565b8063d7d3aab5146109cf578063dd62ed3e14610a025761025c565b8063b21b5a21146109af578063baf13a0a146109b7578063c45a0155146109bf578063d73792a9146109c75761025c565b8063a224cee711610114578063a9059cbb116100f9578063a9059cbb146108aa578063aa6ca808146108e3578063b1ec4c401461093b5761025c565b8063a224cee7146107ce578063a457c2d7146108715761025c565b80637dc203821461068f5780637e067a60146106e65780638da5cb5b146107be57806395d89b41146107c65761025c565b806348d67e1b116101d85780635ed9156d116101a757806370a082311161018c57806370a082311461061b578063715018a61461064e57806378e3214f146106565761025c565b80635ed9156d146105785780636edc2c09146105e85761025c565b806348d67e1b146104765780634f64b2be1461047e57806356929070146104c45780635915d806146104cc5761025c565b80631e1401f81161022f578063313ce56711610214578063313ce567146104175780633950935114610435578063478222c21461046e5761025c565b80631e1401f81461037857806323b872dd146103d45761025c565b806306fdde0314610261578063095ea7b3146102de57806318160ddd1461032b57806319f3736114610345575b600080fd5b610269610aab565b6040805160208082528351818301528351919283929083019185019080838360005b838110156102a357818101518382015260200161028b565b50505050905090810190601f1680156102d05780820380516001836020036101000a031916815260200191505b509250505060405180910390f35b610317600480360360408110156102f457600080fd5b5073ffffffffffffffffffffffffffffffffffffffff8135169060200135610b5f565b604080519115158252519081900360200190f35b610333610b7d565b60408051918252519081900360200190f35b6103176004803603602081101561035b57600080fd5b503573ffffffffffffffffffffffffffffffffffffffff16610b83565b6103bb6004803603606081101561038e57600080fd5b5073ffffffffffffffffffffffffffffffffffffffff813581169160208101359091169060400135610b98565b6040805192835260208301919091528051918290030190f35b610317600480360360608110156103ea57600080fd5b5073ffffffffffffffffffffffffffffffffffffffff813581169160208101359091169060400135610bc4565b61041f610c66565b6040805160ff9092168252519081900360200190f35b6103176004803603604081101561044b57600080fd5b5073ffffffffffffffffffffffffffffffffffffffff8135169060200135610c6f565b610333610cca565b610333610d66565b61049b6004803603602081101561049457600080fd5b5035610d6c565b6040805173ffffffffffffffffffffffffffffffffffffffff9092168252519081900360200190f35b61049b610da0565b610576600480360360408110156104e257600080fd5b8135919081019060408101602082013564010000000081111561050457600080fd5b82018360208201111561051657600080fd5b8035906020019184602083028401116401000000008311171561053857600080fd5b919080806020026020016040519081016040528093929190818152602001838360200280828437600092019190915250929550610e0b945050505050565b005b6105ab6004803603602081101561058e57600080fd5b503573ffffffffffffffffffffffffffffffffffffffff1661106c565b604080517affffffffffffffffffffffffffffffffffffffffffffffffffffff909316835264ffffffffff90911660208301528051918290030190f35b6105ab600480360360208110156105fe57600080fd5b503573ffffffffffffffffffffffffffffffffffffffff166110c3565b6103336004803603602081101561063157600080fd5b503573ffffffffffffffffffffffffffffffffffffffff1661111a565b610576611142565b6105766004803603604081101561066c57600080fd5b5073ffffffffffffffffffffffffffffffffffffffff8135169060200135611242565b610333600480360360c08110156106a557600080fd5b5073ffffffffffffffffffffffffffffffffffffffff81358116916020810135821691604082013591606081013591608082013581169160a0013516611543565b610333600480360360608110156106fc57600080fd5b81019060208101813564010000000081111561071757600080fd5b82018360208201111561072957600080fd5b8035906020019184602083028401116401000000008311171561074b57600080fd5b91939092909160208101903564010000000081111561076957600080fd5b82018360208201111561077b57600080fd5b8035906020019184602083028401116401000000008311171561079d57600080fd5b91935091503573ffffffffffffffffffffffffffffffffffffffff16611b94565b61049b6122f4565b610269612310565b610576600480360360208110156107e457600080fd5b8101906020810181356401000000008111156107ff57600080fd5b82018360208201111561081157600080fd5b8035906020019184602083028401116401000000008311171561083357600080fd5b91908080602002602001604051908101604052809392919081815260200183836020028082843760009201919091525092955061238f945050505050565b6103176004803603604081101561088757600080fd5b5073ffffffffffffffffffffffffffffffffffffffff81351690602001356125d0565b610317600480360360408110156108c057600080fd5b5073ffffffffffffffffffffffffffffffffffffffff8135169060200135612645565b6108eb612659565b60408051602080825283518183015283519192839290830191858101910280838360005b8381101561092757818101518382015260200161090f565b505050509050019250505060405180910390f35b61096e6004803603602081101561095157600080fd5b503573ffffffffffffffffffffffffffffffffffffffff166126c7565b60405180836fffffffffffffffffffffffffffffffff168152602001826fffffffffffffffffffffffffffffffff1681526020019250505060405180910390f35b610333612703565b610333612708565b61049b61270e565b61033361272a565b610333600480360360208110156109e557600080fd5b503573ffffffffffffffffffffffffffffffffffffffff16612736565b61033360048036036040811015610a1857600080fd5b5073ffffffffffffffffffffffffffffffffffffffff813581169160200135166127ec565b610333612824565b61033360048036036020811015610a5b57600080fd5b503573ffffffffffffffffffffffffffffffffffffffff1661288f565b61057660048036036020811015610a8e57600080fd5b503573ffffffffffffffffffffffffffffffffffffffff16612945565b60038054604080516020601f60027fffffffffffffffffffffffffffffffffffffffffffffffffffffffffffffffff610100600188161502019095169490940493840181900481028201810190925282815260609390929091830182828015610b555780601f10610b2a57610100808354040283529160200191610b55565b820191906000526020600020905b815481529060010190602001808311610b3857829003601f168201915b5050505050905090565b6000610b73610b6c612ad0565b8484612ad4565b5060015b92915050565b60025490565b600a6020526000908152604090205460ff1681565b600080610bb8858585610baa89612736565b610bb38961288f565b612c1b565b91509150935093915050565b6000610bd1848484612d72565b610c5b84610bdd612ad0565b610c5685604051806060016040528060288152602001613ed46028913973ffffffffffffffffffffffffffffffffffffffff8a16600090815260016020526040812090610c28612ad0565b73ffffffffffffffffffffffffffffffffffffffff1681526020810191909152604001600020549190612f42565b612ad4565b5060015b9392505050565b60055460ff1690565b6000610b73610c7c612ad0565b84610c568560016000610c8d612ad0565b73ffffffffffffffffffffffffffffffffffffffff908116825260208083019390935260409182016000908120918c168152925290205490612ff3565b600854604080517f478222c2000000000000000000000000000000000000000000000000000000008152905160009273ffffffffffffffffffffffffffffffffffffffff169163478222c2916004808301926020929190829003018186803b158015610d3557600080fd5b505afa158015610d49573d6000803e3d6000fd5b505050506040513d6020811015610d5f57600080fd5b5051905090565b61012c90565b60098181548110610d7957fe5b60009182526020909120015473ffffffffffffffffffffffffffffffffffffffff16905081565b600854604080517f56929070000000000000000000000000000000000000000000000000000000008152905160009273ffffffffffffffffffffffffffffffffffffffff16916356929070916004808301926020929190829003018186803b158015610d3557600080fd5b60026006541415610e7d57604080517f08c379a000000000000000000000000000000000000000000000000000000000815260206004820152601f60248201527f5265656e7472616e637947756172643a207265656e7472616e742063616c6c00604482015290519081900360640190fd5b60026006556000610e8c610b7d565b9050610e983384613067565b60005b60095481101561102b57600060098281548110610eb457fe5b600091825260208220015473ffffffffffffffffffffffffffffffffffffffff169150610ee182306131b1565b90506000610ef985610ef3848a613279565b906132ec565b9050610f1c73ffffffffffffffffffffffffffffffffffffffff8416338361332e565b855184101580610f3f5750858481518110610f3357fe5b60200260200101518110155b610faa57604080517f08c379a000000000000000000000000000000000000000000000000000000000815260206004820152601d60248201527f456d69737761703a20726573756c74206973206e6f7420656e6f756768000000604482015290519081900360640190fd5b610fe582610fb8878a6133b1565b73ffffffffffffffffffffffffffffffffffffffff86166000908152600c602052604090209190886133f3565b61102082610ff3878a6133b1565b73ffffffffffffffffffffffffffffffffffffffff86166000908152600d602052604090209190886133f3565b505050600101610e9b565b5060408051848152905133917f7084f5476618d8e60b11ef0d7d3f06914655adb8793e28ff7f018d4c76d505d5919081900360200190a25050600160065550565b600d602052600090815260409020547affffffffffffffffffffffffffffffffffffffffffffffffffffff8116907b01000000000000000000000000000000000000000000000000000000900464ffffffffff1682565b600c602052600090815260409020547affffffffffffffffffffffffffffffffffffffffffffffffffffff8116907b01000000000000000000000000000000000000000000000000000000900464ffffffffff1682565b73ffffffffffffffffffffffffffffffffffffffff1660009081526020819052604090205490565b61114a612ad0565b60075473ffffffffffffffffffffffffffffffffffffffff9081169116146111d357604080517f08c379a000000000000000000000000000000000000000000000000000000000815260206004820181905260248201527f4f776e61626c653a2063616c6c6572206973206e6f7420746865206f776e6572604482015290519081900360640190fd5b60075460405160009173ffffffffffffffffffffffffffffffffffffffff16907f8be0079c531659141344cd1fd0a4f28419497f9722a3daafe3b4186f6b6457e0908390a3600780547fffffffffffffffffffffffff0000000000000000000000000000000000000000169055565b600260065414156112b457604080517f08c379a000000000000000000000000000000000000000000000000000000000815260206004820152601f60248201527f5265656e7472616e637947756172643a207265656e7472616e742063616c6c00604482015290519081900360640190fd5b60026006556112c1612ad0565b60075473ffffffffffffffffffffffffffffffffffffffff90811691161461134a57604080517f08c379a000000000000000000000000000000000000000000000000000000000815260206004820181905260248201527f4f776e61626c653a2063616c6c6572206973206e6f7420746865206f776e6572604482015290519081900360640190fd5b60095460609067ffffffffffffffff8111801561136657600080fd5b50604051908082528060200260200182016040528015611390578160200160208202803683370190505b50905060005b81518110156113f7576113d830600983815481106113b057fe5b60009182526020909120015473ffffffffffffffffffffffffffffffffffffffff16906131b1565b8282815181106113e457fe5b6020908102919091010152600101611396565b5061141973ffffffffffffffffffffffffffffffffffffffff8416338461332e565b60005b81518110156114bf5781818151811061143157fe5b602002602001015161144a30600984815481106113b057fe5b10156114b757604080517f08c379a000000000000000000000000000000000000000000000000000000000815260206004820152601660248201527f456d69737761703a206163636573732064656e69656400000000000000000000604482015290519081900360640190fd5b60010161141c565b506103e86114cc3061111a565b101561153957604080517f08c379a000000000000000000000000000000000000000000000000000000000815260206004820152601660248201527f456d69737761703a206163636573732064656e69656400000000000000000000604482015290519081900360640190fd5b5050600160065550565b6000600260065414156115b757604080517f08c379a000000000000000000000000000000000000000000000000000000000815260206004820152601f60248201527f5265656e7472616e637947756172643a207265656e7472616e742063616c6c00604482015290519081900360640190fd5b600260065573ffffffffffffffffffffffffffffffffffffffff871661163e57604080517f08c379a000000000000000000000000000000000000000000000000000000000815260206004820152601c60248201527f456d69737761703a206f6e6c7920746f6b656e7320616c6c6f77656400000000604482015290519081900360640190fd5b611646613cfe565b604080518082019091528061167173ffffffffffffffffffffffffffffffffffffffff8b16306131b1565b815260200161169673ffffffffffffffffffffffffffffffffffffffff8a16306131b1565b9052805173ffffffffffffffffffffffffffffffffffffffff8a166000908152600c602090815260408083208151808301909252547affffffffffffffffffffffffffffffffffffffffffffffffffffff811682527b01000000000000000000000000000000000000000000000000000000900464ffffffffff1691810191909152929350916117319161172a9190613481565b83516134ff565b60208381015173ffffffffffffffffffffffffffffffffffffffff8b166000908152600d835260408082208151808301909252547affffffffffffffffffffffffffffffffffffffffffffffffffffff811682527b01000000000000000000000000000000000000000000000000000000900464ffffffffff16938101939093529293506117cc916117c291613481565b8460200151613516565b90506117ee73ffffffffffffffffffffffffffffffffffffffff8b1689613525565b825160009061181d9061181773ffffffffffffffffffffffffffffffffffffffff8e16306131b1565b906133b1565b9050600061182e8c8c848787612c1b565b909650905085158015906118425750888610155b6118ad57604080517f08c379a000000000000000000000000000000000000000000000000000000000815260206004820152601d60248201527f456d69737761703a2072657475726e206973206e6f7420656e6f756768000000604482015290519081900360640190fd5b6118ce73ffffffffffffffffffffffffffffffffffffffff8c16898861332e565b80156118fd576118fd6118df610da0565b73ffffffffffffffffffffffffffffffffffffffff8d16908361332e565b8451841461193d5761193d6119128584612ff3565b73ffffffffffffffffffffffffffffffffffffffff8e166000908152600c602052604090209061360f565b846020015183146119805761198061195584886133b1565b73ffffffffffffffffffffffffffffffffffffffff8d166000908152600d602052604090209061360f565b845173ffffffffffffffffffffffffffffffffffffffff8d166000908152600d602052604090206119b09161367f565b60208086015173ffffffffffffffffffffffffffffffffffffffff8d166000908152600c90925260409091206119e59161367f565b8a73ffffffffffffffffffffffffffffffffffffffff168c73ffffffffffffffffffffffffffffffffffffffff163373ffffffffffffffffffffffffffffffffffffffff167f86c49b5d8577da08444947f1427d23ef191cfabf2c0788f93324d79e926a9302858a8a600001518b60200151611a5f610b7d565b604080519586526020860194909452848401929092526060840152608083015273ffffffffffffffffffffffffffffffffffffffff8d1660a0830152519081900360c00190a460408051828152905173ffffffffffffffffffffffffffffffffffffffff8a169133917f2ff1ad11b6e7211d4d0cc86e3a449ecc036fd7abfe355401bdb6304dbf9b7a2b9181900360200190a35073ffffffffffffffffffffffffffffffffffffffff909a166000908152600b6020526040902080547001000000000000000000000000000000006fffffffffffffffffffffffffffffffff808316909d018d167fffffffffffffffffffffffffffffffff00000000000000000000000000000000909216919091178181048d1687018d169091029b169a909a17909955505060016006559695505050505050565b600060026006541415611c0857604080517f08c379a000000000000000000000000000000000000000000000000000000000815260206004820152601f60248201527f5265656e7472616e637947756172643a207265656e7472616e742063616c6c00604482015290519081900360640190fd5b6002600655600980546040805160208084028201810190925282815260609390929091830182828015611c7157602002820191906000526020600020905b815473ffffffffffffffffffffffffffffffffffffffff168152600190910190602001808311611c46575b5093945050508715801592509050611c895750805186145b611cf457604080517f08c379a000000000000000000000000000000000000000000000000000000000815260206004820152601d60248201527f456d69737761703a2077726f6e6720616d6f756e7473206c656e677468000000604482015290519081900360640190fd5b600087876000818110611d0357fe5b90506020020135118015611d2a5750600087876001818110611d2157fe5b90506020020135115b611d9557604080517f08c379a000000000000000000000000000000000000000000000000000000000815260206004820152601a60248201527f456d69737761703a2077726f6e672076616c7565207573616765000000000000604482015290519081900360640190fd5b60608667ffffffffffffffff81118015611dae57600080fd5b50604051908082528060200260200182016040528015611dd8578160200160208202803683370190505b50905060005b8151811015611e4257611e2330848381518110611df757fe5b602002602001015173ffffffffffffffffffffffffffffffffffffffff166131b190919063ffffffff16565b828281518110611e2f57fe5b6020908102919091010152600101611dde565b506000611e4d610b7d565b905080611ea657611e616103e86063613279565b9350611e6f306103e86136e6565b60005b88811015611ea057611e96858b8b84818110611e8a57fe5b905060200201356134ff565b9450600101611e72565b50611f25565b7fffffffffffffffffffffffffffffffffffffffffffffffffffffffffffffffff935060005b88811015611f2357611f1985611f14858481518110611ee757fe5b6020026020010151610ef38e8e87818110611efe57fe5b905060200201358761327990919063ffffffff16565b613516565b9450600101611ecc565b505b8360005b898110156121355760008b8b83818110611f3f57fe5b9050602002013511611fb257604080517f08c379a000000000000000000000000000000000000000000000000000000000815260206004820152601760248201527f456d69737761703a20616d6f756e74206973207a65726f000000000000000000604482015290519081900360640190fd5b60008315611ff657611ff184610ef360018703611feb878a8881518110611fd557fe5b602002602001015161327990919063ffffffff16565b90612ff3565b61200a565b8b8b8381811061200257fe5b905060200201355b905089898381811061201857fe5b9050602002013581101561208d57604080517f08c379a000000000000000000000000000000000000000000000000000000000815260206004820152601e60248201527f456d69737761703a206d696e416d6f756e74206e6f7420726561636865640000604482015290519081900360640190fd5b6120c98187848151811061209d57fe5b602002602001015173ffffffffffffffffffffffffffffffffffffffff1661352590919063ffffffff16565b831561212c5760006120f88684815181106120e057fe5b6020026020010151611817308a8781518110611df757fe5b905061212888611f1488868151811061210d57fe5b6020026020010151610ef3858a61327990919063ffffffff16565b9750505b50600101611f29565b5081156122195760005b89811015612217576121d484828151811061215657fe5b60200260200101516121718886612ff390919063ffffffff16565b85600d60008a878151811061218257fe5b602002602001015173ffffffffffffffffffffffffffffffffffffffff1673ffffffffffffffffffffffffffffffffffffffff1681526020019081526020016000206133f3909392919063ffffffff16565b61220f8482815181106121e357fe5b60200260200101516121fe8886612ff390919063ffffffff16565b85600c60008a878151811061218257fe5b60010161213f565b505b6000851161228857604080517f08c379a000000000000000000000000000000000000000000000000000000000815260206004820152601e60248201527f456d6e69737761703a20726573756c74206973206e6f7420656e6f7567680000604482015290519081900360640190fd5b61229233866136e6565b6040805186815273ffffffffffffffffffffffffffffffffffffffff88166020820152815133927fb4e1304f97b5093610f51b33ddab6622388422e2dac138b0d32f93dcfbd39edf928290030190a25050600160065550909695505050505050565b60075473ffffffffffffffffffffffffffffffffffffffff1690565b60048054604080516020601f60027fffffffffffffffffffffffffffffffffffffffffffffffffffffffffffffffff610100600188161502019095169490940493840181900481028201810190925282815260609390929091830182828015610b555780601f10610b2a57610100808354040283529160200191610b55565b60085473ffffffffffffffffffffffffffffffffffffffff16331461241557604080517f08c379a000000000000000000000000000000000000000000000000000000000815260206004820152601260248201527f456d69737761703a20464f5242494444454e0000000000000000000000000000604482015290519081900360640190fd5b805160021461248557604080517f08c379a000000000000000000000000000000000000000000000000000000000815260206004820152601e60248201527f456d69737761703a206f6e6c79203220746f6b656e7320616c6c6f7765640000604482015290519081900360640190fd5b8051612498906009906020840190613d18565b5060005b81518110156125cc57600a60008383815181106124b557fe5b60209081029190910181015173ffffffffffffffffffffffffffffffffffffffff1682528101919091526040016000205460ff161561255557604080517f08c379a000000000000000000000000000000000000000000000000000000000815260206004820152601960248201527f456d69737761703a206475706c696361746520746f6b656e7300000000000000604482015290519081900360640190fd5b6001600a600084848151811061256757fe5b60209081029190910181015173ffffffffffffffffffffffffffffffffffffffff16825281019190915260400160002080547fffffffffffffffffffffffffffffffffffffffffffffffffffffffffffffff001691151591909117905560010161249c565b5050565b6000610b736125dd612ad0565b84610c5685604051806060016040528060258152602001613f906025913960016000612607612ad0565b73ffffffffffffffffffffffffffffffffffffffff908116825260208083019390935260409182016000908120918d16815292529020549190612f42565b6000610b73612652612ad0565b8484612d72565b60606009805480602002602001604051908101604052809291908181526020018280548015610b5557602002820191906000526020600020905b815473ffffffffffffffffffffffffffffffffffffffff168152600190910190602001808311612693575050505050905090565b600b602052600090815260409020546fffffffffffffffffffffffffffffffff8082169170010000000000000000000000000000000090041682565b601481565b6103e881565b60085473ffffffffffffffffffffffffffffffffffffffff1681565b670de0b6b3a764000081565b60008061275973ffffffffffffffffffffffffffffffffffffffff8416306131b1565b73ffffffffffffffffffffffffffffffffffffffff84166000908152600c60209081526040918290208251808401909352547affffffffffffffffffffffffffffffffffffffffffffffffffffff811683527b01000000000000000000000000000000000000000000000000000000900464ffffffffff1690820152909150610c5f906127e69083613481565b826134ff565b73ffffffffffffffffffffffffffffffffffffffff918216600090815260016020908152604080832093909416825291909152205490565b600854604080517fddca3f43000000000000000000000000000000000000000000000000000000008152905160009273ffffffffffffffffffffffffffffffffffffffff169163ddca3f43916004808301926020929190829003018186803b158015610d3557600080fd5b6000806128b273ffffffffffffffffffffffffffffffffffffffff8416306131b1565b73ffffffffffffffffffffffffffffffffffffffff84166000908152600d60209081526040918290208251808401909352547affffffffffffffffffffffffffffffffffffffffffffffffffffff811683527b01000000000000000000000000000000000000000000000000000000900464ffffffffff1690820152909150610c5f9061293f9083613481565b82613516565b61294d612ad0565b60075473ffffffffffffffffffffffffffffffffffffffff9081169116146129d657604080517f08c379a000000000000000000000000000000000000000000000000000000000815260206004820181905260248201527f4f776e61626c653a2063616c6c6572206973206e6f7420746865206f776e6572604482015290519081900360640190fd5b73ffffffffffffffffffffffffffffffffffffffff8116612a42576040517f08c379a0000000000000000000000000000000000000000000000000000000008152600401808060200182810382526026815260200180613e1f6026913960400191505060405180910390fd5b60075460405173ffffffffffffffffffffffffffffffffffffffff8084169216907f8be0079c531659141344cd1fd0a4f28419497f9722a3daafe3b4186f6b6457e090600090a3600780547fffffffffffffffffffffffff00000000000000000000000000000000000000001673ffffffffffffffffffffffffffffffffffffffff92909216919091179055565b3390565b73ffffffffffffffffffffffffffffffffffffffff8316612b40576040517f08c379a0000000000000000000000000000000000000000000000000000000008152600401808060200182810382526024815260200180613f426024913960400191505060405180910390fd5b73ffffffffffffffffffffffffffffffffffffffff8216612bac576040517f08c379a0000000000000000000000000000000000000000000000000000000008152600401808060200182810382526022815260200180613e456022913960400191505060405180910390fd5b73ffffffffffffffffffffffffffffffffffffffff808416600081815260016020908152604080832094871680845294825291829020859055815185815291517f8c5be1e5ebec7d5bd14f71427d1e84f3dd0314c0f7b2291e5b200ac8c7c3b9259281900390910190a3505050565b73ffffffffffffffffffffffffffffffffffffffff85166000908152600a6020526040812054819060ff168015612c77575073ffffffffffffffffffffffffffffffffffffffff86166000908152600a602052604090205460ff165b8015612caf57508573ffffffffffffffffffffffffffffffffffffffff168773ffffffffffffffffffffffffffffffffffffffff1614155b8015612cbb5750600085115b15612d68576000612cea612ce3670de0b6b3a7640000610ef3612cdc612824565b8a90613279565b87906133b1565b90506000612d05612cfb8784612ff3565b610ef38488613279565b90506000612d20612d16888a612ff3565b610ef38a89613279565b90506000612d2c610cca565b15612d5657612d51612d47612d3f610cca565b610ef3612824565b610ef384866133b1565b612d59565b60005b929550919350612d6892505050565b9550959350505050565b73ffffffffffffffffffffffffffffffffffffffff8316612dde576040517f08c379a0000000000000000000000000000000000000000000000000000000008152600401808060200182810382526025815260200180613f1d6025913960400191505060405180910390fd5b73ffffffffffffffffffffffffffffffffffffffff8216612e4a576040517f08c379a0000000000000000000000000000000000000000000000000000000008152600401808060200182810382526023815260200180613dda6023913960400191505060405180910390fd5b612e558383836133ac565b612e9f81604051806060016040528060268152602001613e676026913973ffffffffffffffffffffffffffffffffffffffff86166000908152602081905260409020549190612f42565b73ffffffffffffffffffffffffffffffffffffffff8085166000908152602081905260408082209390935590841681522054612edb9082612ff3565b73ffffffffffffffffffffffffffffffffffffffff8084166000818152602081815260409182902094909455805185815290519193928716927fddf252ad1be2c89b69c2b068fc378daa952ba7f163c4a11628f55a4df523b3ef92918290030190a3505050565b60008184841115612feb576040517f08c379a00000000000000000000000000000000000000000000000000000000081526004018080602001828103825283818151815260200191508051906020019080838360005b83811015612fb0578181015183820152602001612f98565b50505050905090810190601f168015612fdd5780820380516001836020036101000a031916815260200191505b509250505060405180910390fd5b505050900390565b600082820183811015610c5f57604080517f08c379a000000000000000000000000000000000000000000000000000000000815260206004820152601b60248201527f536166654d6174683a206164646974696f6e206f766572666c6f770000000000604482015290519081900360640190fd5b73ffffffffffffffffffffffffffffffffffffffff82166130d3576040517f08c379a0000000000000000000000000000000000000000000000000000000008152600401808060200182810382526021815260200180613efc6021913960400191505060405180910390fd5b6130df826000836133ac565b61312981604051806060016040528060228152602001613dfd6022913973ffffffffffffffffffffffffffffffffffffffff85166000908152602081905260409020549190612f42565b73ffffffffffffffffffffffffffffffffffffffff831660009081526020819052604090205560025461315c90826133b1565b60025560408051828152905160009173ffffffffffffffffffffffffffffffffffffffff8516917fddf252ad1be2c89b69c2b068fc378daa952ba7f163c4a11628f55a4df523b3ef9181900360200190a35050565b60006131bc83613817565b156131df575073ffffffffffffffffffffffffffffffffffffffff811631610b77565b8273ffffffffffffffffffffffffffffffffffffffff166370a08231836040518263ffffffff1660e01b8152600401808273ffffffffffffffffffffffffffffffffffffffff16815260200191505060206040518083038186803b15801561324657600080fd5b505afa15801561325a573d6000803e3d6000fd5b505050506040513d602081101561327057600080fd5b50519050610b77565b60008261328857506000610b77565b8282028284828161329557fe5b0414610c5f576040517f08c379a0000000000000000000000000000000000000000000000000000000008152600401808060200182810382526021815260200180613eb36021913960400191505060405180910390fd5b6000610c5f83836040518060400160405280601a81526020017f536166654d6174683a206469766973696f6e206279207a65726f000000000000815250613831565b80156133ac5761333d83613817565b1561338b5760405173ffffffffffffffffffffffffffffffffffffffff83169082156108fc029083906000818181858888f19350505050158015613385573d6000803e3d6000fd5b506133ac565b6133ac73ffffffffffffffffffffffffffffffffffffffff841683836138b0565b505050565b6000610c5f83836040518060400160405280601e81526020017f536166654d6174683a207375627472616374696f6e206f766572666c6f770000815250612f42565b61347b8461347683610ef36134098260016133b1565b604080518082019091528a547affffffffffffffffffffffffffffffffffffffffffffffffffffff811682527b01000000000000000000000000000000000000000000000000000000900464ffffffffff166020820152611feb908990613470908c613481565b90613279565b61360f565b50505050565b6000806134a861012c611f14866020015164ffffffffff16426133b190919063ffffffff16565b905060006134b861012c836133b1565b90506134f661012c610ef36134cd8786613279565b8851611feb907affffffffffffffffffffffffffffffffffffffffffffffffffffff1686613279565b95945050505050565b60008183101561350f5781610c5f565b5090919050565b600081831061350f5781610c5f565b80156125cc5761353482613817565b156135ed57803410156135a857604080517f08c379a000000000000000000000000000000000000000000000000000000000815260206004820152601a60248201527f556e6945524332303a206e6f7420656e6f7567682076616c7565000000000000604482015290519081900360640190fd5b803411156135e857336108fc6135be34846133b1565b6040518115909202916000818181858888f193505050501580156135e6573d6000803e3d6000fd5b505b6125cc565b6125cc73ffffffffffffffffffffffffffffffffffffffff831633308461393d565b81547fffffffffff000000000000000000000000000000000000000000000000000000167affffffffffffffffffffffffffffffffffffffffffffffffffffff91821617167b010000000000000000000000000000000000000000000000000000004264ffffffffff1602179055565b6040805180820190915282547affffffffffffffffffffffffffffffffffffffffffffffffffffff811682527b01000000000000000000000000000000000000000000000000000000900464ffffffffff1660208201526125cc9083906134769084613481565b73ffffffffffffffffffffffffffffffffffffffff821661376857604080517f08c379a000000000000000000000000000000000000000000000000000000000815260206004820152601f60248201527f45524332303a206d696e7420746f20746865207a65726f206164647265737300604482015290519081900360640190fd5b613774600083836133ac565b6002546137819082612ff3565b60025573ffffffffffffffffffffffffffffffffffffffff82166000908152602081905260409020546137b49082612ff3565b73ffffffffffffffffffffffffffffffffffffffff83166000818152602081815260408083209490945583518581529351929391927fddf252ad1be2c89b69c2b068fc378daa952ba7f163c4a11628f55a4df523b3ef9281900390910190a35050565b73ffffffffffffffffffffffffffffffffffffffff161590565b6000818361389a576040517f08c379a0000000000000000000000000000000000000000000000000000000008152602060048201818152835160248401528351909283926044909101919085019080838360008315612fb0578181015183820152602001612f98565b5060008385816138a657fe5b0495945050505050565b6040805173ffffffffffffffffffffffffffffffffffffffff8416602482015260448082018490528251808303909101815260649091019091526020810180517bffffffffffffffffffffffffffffffffffffffffffffffffffffffff167fa9059cbb000000000000000000000000000000000000000000000000000000001790526133ac9084906139ce565b6040805173ffffffffffffffffffffffffffffffffffffffff80861660248301528416604482015260648082018490528251808303909101815260849091019091526020810180517bffffffffffffffffffffffffffffffffffffffffffffffffffffffff167f23b872dd0000000000000000000000000000000000000000000000000000000017905261347b9085905b6060613a30826040518060400160405280602081526020017f5361666545524332303a206c6f772d6c6576656c2063616c6c206661696c65648152508573ffffffffffffffffffffffffffffffffffffffff16613aa69092919063ffffffff16565b8051909150156133ac57808060200190516020811015613a4f57600080fd5b50516133ac576040517f08c379a000000000000000000000000000000000000000000000000000000000815260040180806020018281038252602a815260200180613f66602a913960400191505060405180910390fd5b6060613ab58484600085613abd565b949350505050565b606082471015613b18576040517f08c379a0000000000000000000000000000000000000000000000000000000008152600401808060200182810382526026815260200180613e8d6026913960400191505060405180910390fd5b613b2185613c78565b613b8c57604080517f08c379a000000000000000000000000000000000000000000000000000000000815260206004820152601d60248201527f416464726573733a2063616c6c20746f206e6f6e2d636f6e7472616374000000604482015290519081900360640190fd5b600060608673ffffffffffffffffffffffffffffffffffffffff1685876040518082805190602001908083835b60208310613bf657805182527fffffffffffffffffffffffffffffffffffffffffffffffffffffffffffffffe09092019160209182019101613bb9565b6001836020036101000a03801982511681845116808217855250505050505090500191505060006040518083038185875af1925050503d8060008114613c58576040519150601f19603f3d011682016040523d82523d6000602084013e613c5d565b606091505b5091509150613c6d828286613c7e565b979650505050505050565b3b151590565b60608315613c8d575081610c5f565b825115613c9d5782518084602001fd5b6040517f08c379a0000000000000000000000000000000000000000000000000000000008152602060048201818152845160248401528451859391928392604401919085019080838360008315612fb0578181015183820152602001612f98565b604051806040016040528060008152602001600081525090565b828054828255906000526020600020908101928215613d92579160200282015b82811115613d9257825182547fffffffffffffffffffffffff00000000000000000000000000000000000000001673ffffffffffffffffffffffffffffffffffffffff909116178255602090920191600190910190613d38565b50613d9e929150613da2565b5090565b5b80821115613d9e5780547fffffffffffffffffffffffff0000000000000000000000000000000000000000168155600101613da356fe45524332303a207472616e7366657220746f20746865207a65726f206164647265737345524332303a206275726e20616d6f756e7420657863656564732062616c616e63654f776e61626c653a206e6577206f776e657220697320746865207a65726f206164647265737345524332303a20617070726f766520746f20746865207a65726f206164647265737345524332303a207472616e7366657220616d6f756e7420657863656564732062616c616e6365416464726573733a20696e73756666696369656e742062616c616e636520666f722063616c6c536166654d6174683a206d756c7469706c69636174696f6e206f766572666c6f7745524332303a207472616e7366657220616d6f756e74206578636565647320616c6c6f77616e636545524332303a206275726e2066726f6d20746865207a65726f206164647265737345524332303a207472616e736665722066726f6d20746865207a65726f206164647265737345524332303a20617070726f76652066726f6d20746865207a65726f20616464726573735361666545524332303a204552433230206f7065726174696f6e20646964206e6f74207375636365656445524332303a2064656372656173656420616c6c6f77616e63652062656c6f77207a65726fa2646970667358221220d92f7ef7bfb46aef0fadd6e66e21fb455db32841ec975be2bebaf6a89525d6c064736f6c634300060c0033",
  "immutableReferences": {},
  "source": "\npragma solidity ^0.6.0;\n\nimport \"@openzeppelin/contracts/access/Ownable.sol\";\nimport \"@openzeppelin/contracts/utils/ReentrancyGuard.sol\";\nimport \"@openzeppelin/contracts/math/Math.sol\";\nimport \"@openzeppelin/contracts/math/SafeMath.sol\";\nimport \"@openzeppelin/contracts/token/ERC20/ERC20.sol\";\nimport \"./libraries/UniERC20.sol\";\nimport \"./libraries/Sqrt.sol\";\n\ninterface IFactory {\n    function fee() external view returns (uint256);\n\n    function feeVault() external view returns (uint256);\n\n    function addressVault() external view returns (address);\n}\n\nlibrary VirtualBalance {\n    using SafeMath for uint256;\n\n    struct Data {\n        uint216 balance;\n        uint40 time;\n    }\n\n    uint256 public constant DECAY_PERIOD = 5 minutes;\n\n    function set(VirtualBalance.Data storage self, uint256 balance) internal {\n        self.balance = uint216(balance);\n        self.time = uint40(block.timestamp);\n    }\n\n    function update(VirtualBalance.Data storage self, uint256 realBalance)\n        internal\n    {\n        set(self, current(self, realBalance));\n    }\n\n    function scale(\n        VirtualBalance.Data storage self,\n        uint256 realBalance,\n        uint256 num,\n        uint256 denom\n    ) internal {\n        set(\n            self,\n            current(self, realBalance).mul(num).add(denom.sub(1)).div(denom)\n        );\n    }\n\n    function current(VirtualBalance.Data memory self, uint256 realBalance)\n        internal\n        view\n        returns (uint256)\n    {\n        uint256 timePassed =\n            Math.min(DECAY_PERIOD, block.timestamp.sub(self.time));\n        uint256 timeRemain = DECAY_PERIOD.sub(timePassed);\n        return\n            uint256(self.balance)\n                .mul(timeRemain)\n                .add(realBalance.mul(timePassed))\n                .div(DECAY_PERIOD);\n    }\n}\n\ncontract Emiswap is ERC20, ReentrancyGuard, Ownable {\n    using Sqrt for uint256;\n    using SafeMath for uint256;\n    using UniERC20 for IERC20;\n    using VirtualBalance for VirtualBalance.Data;\n\n    struct Balances {\n        uint256 src;\n        uint256 dst;\n    }\n\n    struct SwapVolumes {\n        uint128 confirmed;\n        uint128 result;\n    }\n\n    event Deposited(address indexed account, uint256 amount, address referral);\n\n    event Withdrawn(address indexed account, uint256 amount);\n\n    event Swapped(\n        address indexed account,\n        address indexed src,\n        address indexed dst,\n        uint256 amount,\n        uint256 result,\n        uint256 srcBalance,\n        uint256 dstBalance,\n        uint256 totalSupply,\n        address referral\n    );\n\n    event Swapped2(\n        address indexed account,\n        address indexed to,\n        uint256 resultVault\n    );\n\n    uint256 public constant REFERRAL_SHARE = 20; // 1/share = 5% of LPs revenue\n    uint256 public constant BASE_SUPPLY = 1000; // Total supply on first deposit\n    uint256 public constant FEE_DENOMINATOR = 1e18;\n\n    IFactory public factory;\n    IERC20[] public tokens;\n    mapping(IERC20 => bool) public isToken;\n    mapping(IERC20 => SwapVolumes) public volumes;\n    mapping(IERC20 => VirtualBalance.Data) public virtualBalancesForAddition;\n    mapping(IERC20 => VirtualBalance.Data) public virtualBalancesForRemoval;\n\n    constructor() public ERC20(\"Emiswap LP token\", \"EMI LP\") {\n        factory = IFactory(msg.sender);\n    }\n\n    // called once by the factory at time of deployment\n    function initialize(IERC20[] memory assets) external {\n        require(msg.sender == address(factory), \"Emiswap: FORBIDDEN\"); // sufficient check\n        require(assets.length == 2, \"Emiswap: only 2 tokens allowed\");\n\n        tokens = assets;\n        for (uint256 i = 0; i < assets.length; i++) {\n            require(!isToken[assets[i]], \"Emiswap: duplicate tokens\");\n            isToken[assets[i]] = true;\n        }\n    }\n\n    function fee() public view returns (uint256) {\n        return factory.fee();\n    }\n\n    function feeVault() public view returns (uint256) {\n        return factory.feeVault();\n    }\n\n    function addressVault() public view returns (address) {\n        return factory.addressVault();\n    }\n\n    function getTokens() external view returns (IERC20[] memory) {\n        return tokens;\n    }\n\n    function decayPeriod() external pure returns (uint256) {\n        return VirtualBalance.DECAY_PERIOD;\n    }\n\n    function getBalanceForAddition(IERC20 token) public view returns (uint256) {\n        uint256 balance = token.uniBalanceOf(address(this));\n        return\n            Math.max(\n                virtualBalancesForAddition[token].current(balance),\n                balance\n            );\n    }\n\n    function getBalanceForRemoval(IERC20 token) public view returns (uint256) {\n        uint256 balance = token.uniBalanceOf(address(this));\n        return\n            Math.min(\n                virtualBalancesForRemoval[token].current(balance),\n                balance\n            );\n    }\n\n    function getReturn(\n        IERC20 src,\n        IERC20 dst,\n        uint256 amount\n    ) external view returns (uint256, uint256) {\n        return\n            _getReturn(\n                src,\n                dst,\n                amount,\n                getBalanceForAddition(src),\n                getBalanceForRemoval(dst)\n            );\n    }\n\n    function deposit(\n        uint256[] calldata amounts,\n        uint256[] calldata minAmounts,\n        address referral\n    ) external nonReentrant returns (uint256 fairSupply) {\n        IERC20[] memory _tokens = tokens;\n        require(\n            (amounts.length > 0) && (amounts.length == _tokens.length),\n            \"Emiswap: wrong amounts length\"\n        );\n        require(\n            (amounts[0] > 0) && (amounts[1] > 0),\n            \"Emiswap: wrong value usage\"\n        );\n\n        uint256[] memory realBalances = new uint256[](amounts.length);\n        for (uint256 i = 0; i < realBalances.length; i++) {\n            realBalances[i] = _tokens[i].uniBalanceOf(address(this));\n        }\n\n        uint256 totalSupply = totalSupply();\n        if (totalSupply == 0) {\n            fairSupply = BASE_SUPPLY.mul(99);\n            _mint(address(this), BASE_SUPPLY); // Donate up to 1%\n\n            // Use the greatest token amount but not less than 99k for the initial supply\n            for (uint256 i = 0; i < amounts.length; i++) {\n                fairSupply = Math.max(fairSupply, amounts[i]);\n            }\n        } else {\n            // Pre-compute fair supply\n            fairSupply = type(uint256).max;\n            for (uint256 i = 0; i < amounts.length; i++) {\n                fairSupply = Math.min(\n                    fairSupply,\n                    totalSupply.mul(amounts[i]).div(realBalances[i])\n                );\n            }\n        }\n\n        uint256 fairSupplyCached = fairSupply;\n        for (uint256 i = 0; i < amounts.length; i++) {\n            require(amounts[i] > 0, \"Emiswap: amount is zero\");\n            uint256 amount =\n                (totalSupply == 0)\n                    ? amounts[i]\n                    : realBalances[i]\n                        .mul(fairSupplyCached)\n                        .add(totalSupply - 1)\n                        .div(totalSupply);\n            require(amount >= minAmounts[i], \"Emiswap: minAmount not reached\");\n\n            _tokens[i].uniTransferFromSenderToThis(amount);\n            if (totalSupply > 0) {\n                uint256 confirmed =\n                    _tokens[i].uniBalanceOf(address(this)).sub(realBalances[i]);\n                fairSupply = Math.min(\n                    fairSupply,\n                    totalSupply.mul(confirmed).div(realBalances[i])\n                );\n            }\n        }\n\n        if (totalSupply > 0) {\n            for (uint256 i = 0; i < amounts.length; i++) {\n                virtualBalancesForRemoval[_tokens[i]].scale(\n                    realBalances[i],\n                    totalSupply.add(fairSupply),\n                    totalSupply\n                );\n                virtualBalancesForAddition[_tokens[i]].scale(\n                    realBalances[i],\n                    totalSupply.add(fairSupply),\n                    totalSupply\n                );\n            }\n        }\n\n        require(fairSupply > 0, \"Emniswap: result is not enough\");\n        _mint(msg.sender, fairSupply);\n\n        emit Deposited(msg.sender, fairSupply, referral);\n    }\n\n    function withdraw(uint256 amount, uint256[] memory minReturns)\n        external\n        nonReentrant\n    {\n        uint256 totalSupply = totalSupply();\n        _burn(msg.sender, amount);\n\n        for (uint256 i = 0; i < tokens.length; i++) {\n            IERC20 token = tokens[i];\n\n            uint256 preBalance = token.uniBalanceOf(address(this));\n            uint256 value = preBalance.mul(amount).div(totalSupply);\n            token.uniTransfer(msg.sender, value);\n            require(\n                i >= minReturns.length || value >= minReturns[i],\n                \"Emiswap: result is not enough\"\n            );\n\n            virtualBalancesForAddition[token].scale(\n                preBalance,\n                totalSupply.sub(amount),\n                totalSupply\n            );\n            virtualBalancesForRemoval[token].scale(\n                preBalance,\n                totalSupply.sub(amount),\n                totalSupply\n            );\n        }\n\n        emit Withdrawn(msg.sender, amount);\n    }\n\n    function swap(\n        IERC20 src,\n        IERC20 dst,\n        uint256 amount,\n        uint256 minReturn,\n        address to,\n        address referral\n    ) external nonReentrant returns (uint256 result) {\n        require(address(src) != address(0), \"Emiswap: only tokens allowed\");\n\n        Balances memory balances =\n            Balances({\n                src: src.uniBalanceOf(address(this)),\n                dst: dst.uniBalanceOf(address(this))\n            });\n\n        // catch possible airdrops and external balance changes for deflationary tokens\n        uint256 srcAdditionBalance =\n            Math.max(\n                virtualBalancesForAddition[src].current(balances.src),\n                balances.src\n            );\n        uint256 dstRemovalBalance =\n            Math.min(\n                virtualBalancesForRemoval[dst].current(balances.dst),\n                balances.dst\n            );\n\n        src.uniTransferFromSenderToThis(amount);\n        uint256 confirmed = src.uniBalanceOf(address(this)).sub(balances.src);\n\n        uint256 resultVault;\n        (result, resultVault) = _getReturn(\n            src,\n            dst,\n            confirmed,\n            srcAdditionBalance,\n            dstRemovalBalance\n        );\n        require(\n            result > 0 && result >= minReturn,\n            \"Emiswap: return is not enough\"\n        );\n        dst.uniTransfer(payable(to), result);\n        if (resultVault > 0) {\n            dst.uniTransfer(payable(addressVault()), resultVault);\n        }\n\n        // Update virtual balances to the same direction only at imbalanced state\n        if (srcAdditionBalance != balances.src) {\n            virtualBalancesForAddition[src].set(\n                srcAdditionBalance.add(confirmed)\n            );\n        }\n        if (dstRemovalBalance != balances.dst) {\n            virtualBalancesForRemoval[dst].set(dstRemovalBalance.sub(result));\n        }\n\n        // Update virtual balances to the opposite direction\n        virtualBalancesForRemoval[src].update(balances.src);\n        virtualBalancesForAddition[dst].update(balances.dst);\n\n        emit Swapped(\n            msg.sender,\n            address(src),\n            address(dst),\n            confirmed,\n            result,\n            balances.src,\n            balances.dst,\n            totalSupply(),\n            referral\n        );\n        emit Swapped2(msg.sender, to, resultVault);\n\n        // Overflow of uint128 is desired\n        volumes[src].confirmed += uint128(confirmed);\n        volumes[src].result += uint128(result);\n    }\n\n    function rescueFunds(IERC20 token, uint256 amount)\n        external\n        nonReentrant\n        onlyOwner\n    {\n        uint256[] memory balances = new uint256[](tokens.length);\n        for (uint256 i = 0; i < balances.length; i++) {\n            balances[i] = tokens[i].uniBalanceOf(address(this));\n        }\n\n        token.uniTransfer(msg.sender, amount);\n\n        for (uint256 i = 0; i < balances.length; i++) {\n            require(\n                tokens[i].uniBalanceOf(address(this)) >= balances[i],\n                \"Emiswap: access denied\"\n            );\n        }\n        require(\n            balanceOf(address(this)) >= BASE_SUPPLY,\n            \"Emiswap: access denied\"\n        );\n    }\n\n    function _getReturn(\n        IERC20 src,\n        IERC20 dst,\n        uint256 amount,\n        uint256 srcBalance,\n        uint256 dstBalance\n    ) internal view returns (uint256, uint256) {\n        if (isToken[src] && isToken[dst] && src != dst && amount > 0) {\n            uint256 taxedAmount =\n                amount.sub(amount.mul(fee()).div(FEE_DENOMINATOR));\n            uint256 resWFee =\n                taxedAmount.mul(dstBalance).div(srcBalance.add(taxedAmount));\n            uint256 resWOFee =\n                amount.mul(dstBalance).div(srcBalance.add(amount));\n            uint256 resVault =\n                (\n                    feeVault() == 0\n                        ? 0\n                        : resWOFee.sub(resWFee).div(fee().div(feeVault()))\n                );\n\n            return (resWFee, resVault);\n        }\n    }\n}\n",
  "sourcePath": "/root/emiswap/mooniswap/contracts/Emiswap.sol",
  "compiler": {
    "name": "solc",
    "version": "0.6.12+commit.27d51765.Emscripten.clang"
  },
  "schemaVersion": "3.3.2",
  "updatedAt": "2021-01-19T06:30:22.903Z",
  "networkType": "ethereum",
  "devdoc": {
    "kind": "dev",
    "methods": {
      "allowance(address,address)": {
        "details": "See {IERC20-allowance}."
      },
      "approve(address,uint256)": {
        "details": "See {IERC20-approve}. Requirements: - `spender` cannot be the zero address."
      },
      "balanceOf(address)": {
        "details": "See {IERC20-balanceOf}."
      },
      "decimals()": {
        "details": "Returns the number of decimals used to get its user representation. For example, if `decimals` equals `2`, a balance of `505` tokens should be displayed to a user as `5,05` (`505 / 10 ** 2`). Tokens usually opt for a value of 18, imitating the relationship between Ether and Wei. This is the value {ERC20} uses, unless {_setupDecimals} is called. NOTE: This information is only used for _display_ purposes: it in no way affects any of the arithmetic of the contract, including {IERC20-balanceOf} and {IERC20-transfer}."
      },
      "decreaseAllowance(address,uint256)": {
        "details": "Atomically decreases the allowance granted to `spender` by the caller. This is an alternative to {approve} that can be used as a mitigation for problems described in {IERC20-approve}. Emits an {Approval} event indicating the updated allowance. Requirements: - `spender` cannot be the zero address. - `spender` must have allowance for the caller of at least `subtractedValue`."
      },
      "increaseAllowance(address,uint256)": {
        "details": "Atomically increases the allowance granted to `spender` by the caller. This is an alternative to {approve} that can be used as a mitigation for problems described in {IERC20-approve}. Emits an {Approval} event indicating the updated allowance. Requirements: - `spender` cannot be the zero address."
      },
      "name()": {
        "details": "Returns the name of the token."
      },
      "owner()": {
        "details": "Returns the address of the current owner."
      },
      "renounceOwnership()": {
        "details": "Leaves the contract without owner. It will not be possible to call `onlyOwner` functions anymore. Can only be called by the current owner. NOTE: Renouncing ownership will leave the contract without an owner, thereby removing any functionality that is only available to the owner."
      },
      "symbol()": {
        "details": "Returns the symbol of the token, usually a shorter version of the name."
      },
      "totalSupply()": {
        "details": "See {IERC20-totalSupply}."
      },
      "transfer(address,uint256)": {
        "details": "See {IERC20-transfer}. Requirements: - `recipient` cannot be the zero address. - the caller must have a balance of at least `amount`."
      },
      "transferFrom(address,address,uint256)": {
        "details": "See {IERC20-transferFrom}. Emits an {Approval} event indicating the updated allowance. This is not required by the EIP. See the note at the beginning of {ERC20}. Requirements: - `sender` and `recipient` cannot be the zero address. - `sender` must have a balance of at least `amount`. - the caller must have allowance for ``sender``'s tokens of at least `amount`."
      },
      "transferOwnership(address)": {
        "details": "Transfers ownership of the contract to a new account (`newOwner`). Can only be called by the current owner."
      }
    },
    "version": 1
  },
  "userdoc": {
    "kind": "user",
    "methods": {},
    "version": 1
  }
}